{
  "contractName": "TwinYield",
  "abi": [
    {
      "anonymous": false,
      "inputs": [
        {
          "indexed": true,
          "internalType": "address",
          "name": "account",
          "type": "address"
        },
        {
          "indexed": false,
          "internalType": "uint256",
          "name": "amount",
          "type": "uint256"
        }
      ],
      "name": "Deposited",
      "type": "event"
    },
    {
      "anonymous": false,
      "inputs": [
        {
          "indexed": true,
          "internalType": "address",
          "name": "liquidator",
          "type": "address"
        },
        {
          "indexed": true,
          "internalType": "address",
          "name": "liquidated",
          "type": "address"
        },
        {
          "indexed": false,
          "internalType": "uint256",
          "name": "liquidateAmount",
          "type": "uint256"
        },
        {
          "indexed": false,
          "internalType": "uint256",
          "name": "collateralLiquidated",
          "type": "uint256"
        },
        {
          "indexed": false,
          "internalType": "uint256",
          "name": "newLiquidatorCollateral",
          "type": "uint256"
        },
        {
          "indexed": false,
          "internalType": "uint256",
          "name": "newLiquidatorDebt",
          "type": "uint256"
        }
      ],
      "name": "Liquidated",
      "type": "event"
    },
    {
      "anonymous": false,
      "inputs": [
        {
          "indexed": true,
          "internalType": "address",
          "name": "account",
          "type": "address"
        },
        {
          "indexed": false,
          "internalType": "uint256",
          "name": "amount",
          "type": "uint256"
        }
      ],
      "name": "Minted",
      "type": "event"
    },
    {
      "anonymous": false,
      "inputs": [
        {
          "indexed": true,
          "internalType": "address",
          "name": "account",
          "type": "address"
        },
        {
          "indexed": false,
          "internalType": "uint256",
          "name": "dTokenAmount",
          "type": "uint256"
        },
        {
          "indexed": false,
          "internalType": "uint256",
          "name": "collateralAmount",
          "type": "uint256"
        }
      ],
      "name": "Redeemed",
      "type": "event"
    },
    {
      "anonymous": false,
      "inputs": [
        {
          "indexed": true,
          "internalType": "address",
          "name": "repayer",
          "type": "address"
        },
        {
          "indexed": true,
          "internalType": "address",
          "name": "vault",
          "type": "address"
        },
        {
          "indexed": false,
          "internalType": "uint256",
          "name": "amount",
          "type": "uint256"
        }
      ],
      "name": "Repaid",
      "type": "event"
    },
    {
      "anonymous": false,
      "inputs": [
        {
          "indexed": true,
          "internalType": "uint256",
          "name": "timestamp",
          "type": "uint256"
        },
        {
          "indexed": false,
          "internalType": "uint256",
          "name": "settlePrice",
          "type": "uint256"
        }
      ],
      "name": "Settled",
      "type": "event"
    },
    {
      "anonymous": false,
      "inputs": [
        {
          "indexed": true,
          "internalType": "address",
          "name": "seller",
          "type": "address"
        },
        {
          "indexed": true,
          "internalType": "address",
          "name": "balancerPool",
          "type": "address"
        },
        {
          "indexed": false,
          "internalType": "address",
          "name": "tokenIn",
          "type": "address"
        },
        {
          "indexed": false,
          "internalType": "address",
          "name": "tokenOut",
          "type": "address"
        },
        {
          "indexed": false,
          "internalType": "uint256",
          "name": "sellAmount",
          "type": "uint256"
        },
        {
          "indexed": false,
          "internalType": "uint256",
          "name": "maxSlippage",
          "type": "uint256"
        }
      ],
      "name": "SoldToBalancerPool",
      "type": "event"
    },
    {
      "anonymous": false,
      "inputs": [
        {
          "indexed": true,
          "internalType": "address",
          "name": "account",
          "type": "address"
        },
        {
          "indexed": false,
          "internalType": "uint256",
          "name": "amount",
          "type": "uint256"
        }
      ],
      "name": "Withdrew",
      "type": "event"
    },
    {
      "anonymous": false,
      "inputs": [
        {
          "indexed": true,
          "internalType": "address",
          "name": "account",
          "type": "address"
        },
        {
          "indexed": false,
          "internalType": "uint256",
          "name": "amount",
          "type": "uint256"
        }
      ],
      "name": "WithdrewExpired",
      "type": "event"
    },
    {
      "inputs": [],
      "name": "balancerDToken",
      "outputs": [
        {
          "internalType": "address",
          "name": "",
          "type": "address"
        }
      ],
      "stateMutability": "view",
      "type": "function",
      "constant": true
    },
    {
      "inputs": [],
      "name": "balancerFactory",
      "outputs": [
        {
          "internalType": "address",
          "name": "",
          "type": "address"
        }
      ],
      "stateMutability": "view",
      "type": "function",
      "constant": true
    },
    {
      "inputs": [],
      "name": "balancerPaymentToken",
      "outputs": [
        {
          "internalType": "address",
          "name": "",
          "type": "address"
        }
      ],
      "stateMutability": "view",
      "type": "function",
      "constant": true
    },
    {
      "inputs": [],
      "name": "balancerPool",
      "outputs": [
        {
          "internalType": "address",
          "name": "",
          "type": "address"
        }
      ],
      "stateMutability": "view",
      "type": "function",
      "constant": true
    },
    {
      "inputs": [],
      "name": "collateralAsset",
      "outputs": [
        {
          "internalType": "address",
          "name": "",
          "type": "address"
        }
      ],
      "stateMutability": "view",
      "type": "function",
      "constant": true
    },
    {
      "inputs": [],
      "name": "collateralizationRatio",
      "outputs": [
        {
          "internalType": "uint256",
          "name": "",
          "type": "uint256"
        }
      ],
      "stateMutability": "view",
      "type": "function",
      "constant": true
    },
    {
      "inputs": [],
      "name": "dToken",
      "outputs": [
        {
          "internalType": "address",
          "name": "",
          "type": "address"
        }
      ],
      "stateMutability": "view",
      "type": "function",
      "constant": true
    },
    {
      "inputs": [],
      "name": "dataProvider",
      "outputs": [
        {
          "internalType": "address",
          "name": "",
          "type": "address"
        }
      ],
      "stateMutability": "view",
      "type": "function",
      "constant": true
    },
    {
      "inputs": [],
      "name": "expired",
      "outputs": [
        {
          "internalType": "bool",
          "name": "",
          "type": "bool"
        }
      ],
      "stateMutability": "view",
      "type": "function",
      "constant": true
    },
    {
      "inputs": [],
      "name": "expiry",
      "outputs": [
        {
          "internalType": "uint256",
          "name": "",
          "type": "uint256"
        }
      ],
      "stateMutability": "view",
      "type": "function",
      "constant": true
    },
    {
      "inputs": [
        {
          "internalType": "uint256",
          "name": "_initDTokenAmount",
          "type": "uint256"
        },
        {
          "internalType": "uint256",
          "name": "_initPaymentTokenAmount",
          "type": "uint256"
        }
      ],
      "name": "finalizePool",
      "outputs": [],
      "stateMutability": "nonpayable",
      "type": "function"
    },
    {
      "inputs": [],
      "name": "getColPrice",
      "outputs": [
        {
          "internalType": "uint256",
          "name": "",
          "type": "uint256"
        }
      ],
      "stateMutability": "view",
      "type": "function",
      "constant": true
    },
    {
      "inputs": [],
      "name": "getTargetPrice",
      "outputs": [
        {
          "internalType": "uint256",
          "name": "",
          "type": "uint256"
        }
      ],
      "stateMutability": "view",
      "type": "function",
      "constant": true
    },
    {
      "inputs": [
        {
          "internalType": "address",
          "name": "_user",
          "type": "address"
        }
      ],
      "name": "getVault",
      "outputs": [
        {
          "internalType": "uint256",
          "name": "_collateral",
          "type": "uint256"
        },
        {
          "internalType": "uint256",
          "name": "_dTokenDebt",
          "type": "uint256"
        }
      ],
      "stateMutability": "view",
      "type": "function",
      "constant": true
    },
    {
      "inputs": [],
      "name": "liquidatorProxy",
      "outputs": [
        {
          "internalType": "address",
          "name": "",
          "type": "address"
        }
      ],
      "stateMutability": "view",
      "type": "function",
      "constant": true
    },
    {
      "inputs": [],
      "name": "name",
      "outputs": [
        {
          "internalType": "string",
          "name": "",
          "type": "string"
        }
      ],
      "stateMutability": "view",
      "type": "function",
      "constant": true
    },
    {
      "inputs": [],
      "name": "owner",
      "outputs": [
        {
          "internalType": "address",
          "name": "",
          "type": "address"
        }
      ],
      "stateMutability": "view",
      "type": "function",
      "constant": true
    },
    {
      "inputs": [],
      "name": "paymentToken",
      "outputs": [
        {
          "internalType": "address",
          "name": "",
          "type": "address"
        }
      ],
      "stateMutability": "view",
      "type": "function",
      "constant": true
    },
    {
      "inputs": [
        {
          "internalType": "uint256",
          "name": "_sellAmount",
          "type": "uint256"
        },
        {
          "internalType": "uint256",
          "name": "_maxSlippage",
          "type": "uint256"
        }
      ],
      "name": "sellToPool",
      "outputs": [
        {
          "internalType": "uint256",
          "name": "tokenAmountOut",
          "type": "uint256"
        },
        {
          "internalType": "uint256",
          "name": "spotPriceAfter",
          "type": "uint256"
        }
      ],
      "stateMutability": "nonpayable",
      "type": "function"
    },
    {
      "inputs": [],
      "name": "settlePrice",
      "outputs": [
        {
          "internalType": "uint256",
          "name": "",
          "type": "uint256"
        }
      ],
      "stateMutability": "view",
      "type": "function",
      "constant": true
    },
    {
      "inputs": [],
      "name": "strikePrice",
      "outputs": [
        {
          "internalType": "uint256",
          "name": "",
          "type": "uint256"
        }
      ],
      "stateMutability": "view",
      "type": "function",
      "constant": true
    },
    {
      "inputs": [],
      "name": "symbol",
      "outputs": [
        {
          "internalType": "string",
          "name": "",
          "type": "string"
        }
      ],
      "stateMutability": "view",
      "type": "function",
      "constant": true
    },
    {
      "inputs": [],
      "name": "targetAsset",
      "outputs": [
        {
          "internalType": "address",
          "name": "",
          "type": "address"
        }
      ],
      "stateMutability": "view",
      "type": "function",
      "constant": true
    },
    {
      "inputs": [
        {
          "internalType": "address",
          "name": "",
          "type": "address"
        }
      ],
      "name": "vaults",
      "outputs": [
        {
          "internalType": "uint256",
          "name": "collateral",
          "type": "uint256"
        },
        {
          "internalType": "uint256",
          "name": "dTokenDebt",
          "type": "uint256"
        }
      ],
      "stateMutability": "view",
      "type": "function",
      "constant": true
    },
    {
      "inputs": [
        {
          "internalType": "address",
          "name": "_owner",
          "type": "address"
        },
        {
          "internalType": "address",
          "name": "_dataProvider",
          "type": "address"
        },
        {
          "internalType": "string",
          "name": "name",
          "type": "string"
        },
        {
          "internalType": "string",
          "name": "symbol",
          "type": "string"
        },
        {
          "internalType": "uint256",
          "name": "_expiry",
          "type": "uint256"
        },
        {
          "internalType": "uint256",
          "name": "_strikePrice",
          "type": "uint256"
        },
        {
          "internalType": "uint256",
          "name": "_collateralizationRatio",
          "type": "uint256"
        },
        {
          "internalType": "address",
          "name": "_collateralAsset",
          "type": "address"
        },
        {
          "internalType": "address",
          "name": "_targetAsset",
          "type": "address"
        },
        {
          "internalType": "address",
          "name": "_paymentToken",
          "type": "address"
        },
        {
          "internalType": "address",
          "name": "_liquidatorProxy",
          "type": "address"
        },
        {
          "internalType": "address",
          "name": "_balancerFactory",
          "type": "address"
        }
      ],
      "name": "initialize",
      "outputs": [],
      "stateMutability": "nonpayable",
      "type": "function"
    },
    {
      "inputs": [
        {
          "internalType": "address",
          "name": "owner",
          "type": "address"
        },
        {
          "internalType": "address",
          "name": "bFactory",
          "type": "address"
        },
        {
          "internalType": "address",
          "name": "dToken",
          "type": "address"
        },
        {
          "internalType": "address",
          "name": "paymentToken",
          "type": "address"
        }
      ],
      "name": "initialize",
      "outputs": [],
      "stateMutability": "nonpayable",
      "type": "function"
    },
    {
      "inputs": [
        {
          "internalType": "uint256",
          "name": "_amount",
          "type": "uint256"
        }
      ],
      "name": "deposit",
      "outputs": [],
      "stateMutability": "nonpayable",
      "type": "function"
    },
    {
      "inputs": [
        {
          "internalType": "uint256",
          "name": "_amount",
          "type": "uint256"
        }
      ],
      "name": "mint",
      "outputs": [],
      "stateMutability": "nonpayable",
      "type": "function"
    },
    {
      "inputs": [
        {
          "internalType": "uint256",
          "name": "_collateral",
          "type": "uint256"
        },
        {
          "internalType": "uint256",
          "name": "_dToken",
          "type": "uint256"
        }
      ],
      "name": "depositAndMint",
      "outputs": [],
      "stateMutability": "nonpayable",
      "type": "function"
    },
    {
      "inputs": [
        {
          "internalType": "uint256",
          "name": "_collateral",
          "type": "uint256"
        },
        {
          "internalType": "uint256",
          "name": "_dToken",
          "type": "uint256"
        },
        {
          "internalType": "uint256",
          "name": "_maxSlippage",
          "type": "uint256"
        }
      ],
      "name": "depositMintAndSell",
      "outputs": [],
      "stateMutability": "nonpayable",
      "type": "function"
    },
    {
      "inputs": [
        {
          "internalType": "address",
          "name": "_account",
          "type": "address"
        },
        {
          "internalType": "uint256",
          "name": "_amount",
          "type": "uint256"
        }
      ],
      "name": "repayDebt",
      "outputs": [],
      "stateMutability": "nonpayable",
      "type": "function"
    },
    {
      "inputs": [],
      "name": "settle",
      "outputs": [],
      "stateMutability": "nonpayable",
      "type": "function"
    },
    {
      "inputs": [
        {
          "internalType": "uint256",
          "name": "_dTokenAmount",
          "type": "uint256"
        }
      ],
      "name": "redeem",
      "outputs": [],
      "stateMutability": "nonpayable",
      "type": "function"
    },
    {
      "inputs": [],
      "name": "withdrawAfterExpiry",
      "outputs": [],
      "stateMutability": "nonpayable",
      "type": "function"
    }
  ],
  "bytecode": "0x608060405234801561001057600080fd5b506001600055613c39806100256000396000f3fe60806040523480156200001157600080fd5b5060043610620002385760003560e01c806395d89b411162000135578063bd01bb3211620000bd578063db006a751162000087578063db006a75146200069f578063dcaf9c4414620006bf578063e184c9be14620006c9578063f8c8765e14620006d3578063ffdc3faa14620007145762000238565b8063bd01bb321462000677578063c20fe83c1462000681578063c52987cf146200068b578063d9d7858a14620006955762000238565b8063aabaecd611620000ff578063aabaecd614620004b7578063b31ac4bb14620004c1578063b334ed86146200064d578063b6b55f2514620006575762000238565b806395d89b41146200045a5780639c9216311462000464578063a0712d68146200046e578063a622ee7c146200048e5762000238565b80633101e27711620001c557806372d6e87d116200018f57806372d6e87d14620003e7578063776da47014620003f157806379e20bdc14620003fb5780638da5cb5b146200042a5780638e1868f414620004345762000238565b80633101e27714620003ab5780633d4403ac14620003b55780634c2067c714620003bf5780634dc477cb14620003dd5762000238565b806311da60b4116200020757806311da60b4146200034d5780632567d7d61462000359578063283ff6aa14620003755780633013ce2914620003a15762000238565b806304b514e1146200023d57806306fdde0314620002635780630de7749114620002e55780630eb9af381462000324575b600080fd5b620002476200073a565b604080516001600160a01b039092168252519081900360200190f35b6200026d6200074a565b6040805160208082528351818301528351919283929083019185019080838360005b83811015620002a95781810151838201526020016200028f565b50505050905090810190601f168015620002d75780820380516001836020036101000a031916815260200191505b509250505060405180910390f35b6200030b60048036036040811015620002fd57600080fd5b5080359060200135620007e4565b6040805192835260208301919091528051918290030190f35b6200030b600480360360208110156200033c57600080fd5b50356001600160a01b031662000b9d565b6200035762000be5565b005b6200036362000d1d565b60408051918252519081900360200190f35b62000357600480360360608110156200038d57600080fd5b508035906020810135906040013562000d23565b6200024762000d9f565b6200024762000dae565b6200024762000dbd565b620003c962000dcc565b604080519115158252519081900360200190f35b6200024762000ddc565b6200024762000deb565b6200024762000dfa565b62000357600480360360408110156200041357600080fd5b506001600160a01b03813516906020013562000e09565b6200024762000e6c565b62000357600480360360408110156200044c57600080fd5b508035906020013562000e7b565b6200026d62000edf565b6200036362000f43565b62000357600480360360208110156200048657600080fd5b503562000fcd565b6200030b60048036036020811015620004a657600080fd5b50356001600160a01b03166200102e565b6200024762001047565b620003576004803603610180811015620004da57600080fd5b6001600160a01b0382358116926020810135909116918101906060810160408201356401000000008111156200050f57600080fd5b8201836020820111156200052257600080fd5b803590602001918460018302840111640100000000831117156200054557600080fd5b91908080601f01602080910402602001604051908101604052809392919081815260200183838082843760009201919091525092959493602081019350359150506401000000008111156200059957600080fd5b820183602082011115620005ac57600080fd5b80359060200191846001830284011164010000000083111715620005cf57600080fd5b91908080601f016020809104026020016040519081016040528093929190818152602001838380828437600092019190915250929550508235935050506020810135906040810135906001600160a01b036060820135811691608081013582169160a082013581169160c081013582169160e0909101351662001056565b62000247620013f4565b62000357600480360360208110156200066f57600080fd5b503562001403565b620003636200145b565b62000357620014b1565b620003636200167e565b6200024762001684565b6200035760048036036020811015620006b757600080fd5b503562001693565b6200036362001858565b620003636200185e565b6200035760048036036080811015620006eb57600080fd5b506001600160a01b03813581169160208101358216916040820135811691606001351662001864565b62000357600480360360408110156200072c57600080fd5b50803590602001356200197d565b6035546001600160a01b03165b90565b60388054604080516020601f6002600019610100600188161502019095169490940493840181900481028201810190925282815260609390929091830182828015620007da5780601f10620007ae57610100808354040283529160200191620007da565b820191906000526020600020905b815481529060010190602001808311620007bc57829003601f168201915b5050505050905090565b603454603554603654604080516315e84af960e01b81526001600160a01b03948516600482018190529385166024820181905291516000958695941691859183916315e84af991604480830192602092919082900301818787803b1580156200084c57600080fd5b505af115801562000861573d6000803e3d6000fd5b505050506040513d60208110156200087857600080fd5b5051905060006200089d8262000897670de0b6b3a76400008b62001d13565b62001d69565b90506000620008ad8a8362001da7565b9050856001600160a01b031663095ea7b3858c6040518363ffffffff1660e01b815260040180836001600160a01b03166001600160a01b0316815260200182815260200192505050602060405180830381600087803b1580156200091057600080fd5b505af115801562000925573d6000803e3d6000fd5b505050506040513d60208110156200093c57600080fd5b505060365460345460408051638201aa3f60e01b81526001600160a01b039283166004820152602481018e90528883166044820152606481018590526084810186905281519290931692638201aa3f9260a480830193928290030181600087803b158015620009aa57600080fd5b505af1158015620009bf573d6000803e3d6000fd5b505050506040513d6040811015620009d657600080fd5b5080516020918201516040805163095ea7b360e01b81526001600160a01b0389811660048301526000602483018190529251949d50929b50918a169363095ea7b393604480850194929391928390030190829087803b15801562000a3957600080fd5b505af115801562000a4e573d6000803e3d6000fd5b505050506040513d602081101562000a6557600080fd5b50506040805163a9059cbb60e01b8152336004820152602481018a905290516001600160a01b0387169163a9059cbb9160448083019260209291908290030181600087803b15801562000ab757600080fd5b505af115801562000acc573d6000803e3d6000fd5b505050506040513d602081101562000ae357600080fd5b505162000b37576040805162461bcd60e51b815260206004820152601760248201527f546f6b656e206f7574207472616e73666572206661696c000000000000000000604482015290519081900360640190fd5b604080516001600160a01b03888116825287811660208301528183018d9052606082018c905291519186169133917f242bb1c72eb2ec4c4efe76dea95293a9a5c58fa6c04ec601c47a6fb751a1dc0b919081900360800190a35050505050509250929050565b60008062000baa6200266a565b5050506001600160a01b0316600090815260466020908152604091829020825180840190935280548084526001909101549290910182905291565b603a54421162000c3c576040805162461bcd60e51b815260206004820152601a60248201527f496e737472756d656e7420686173206e6f742065787069726564000000000000604482015290519081900360640190fd5b6041805460ff60a01b1916600160a01b1790819055603d54604080516341976e0960e01b81526001600160a01b0392831660048201529051919092169162000ce09183916341976e09916024808301926020929190829003018186803b15801562000ca657600080fd5b505afa15801562000cbb573d6000803e3d6000fd5b505050506040513d602081101562000cd257600080fd5b50516402540be40062001dcb565b6042819055604080519182525142917ff5b268a3ff315cc44ccceeef86259c9e8eef81ceecb14001543809115380dd62919081900360200190a250565b60425481565b6002600054141562000d6b576040805162461bcd60e51b815260206004820152601f602482015260008051602062003b49833981519152604482015290519081900360640190fd5b600260005562000d7b8362001e31565b62000d87308362001f17565b62000d938282620007e4565b50506001600055505050565b603f546001600160a01b031681565b6043546001600160a01b031681565b603e546001600160a01b031681565b604154600160a01b900460ff1681565b6034546001600160a01b031690565b6044546001600160a01b031681565b6036546001600160a01b031690565b6002600054141562000e51576040805162461bcd60e51b815260206004820152601f602482015260008051602062003b49833981519152604482015290519081900360640190fd5b600260005562000e63338383620020ad565b50506001600055565b6045546001600160a01b031681565b6002600054141562000ec3576040805162461bcd60e51b815260206004820152601f602482015260008051602062003b49833981519152604482015290519081900360640190fd5b600260005562000ed38262001e31565b62000e63338262001f17565b60398054604080516020601f6002600019610100600188161502019095169490940493840181900481028201810190925282815260609390929091830182828015620007da5780601f10620007ae57610100808354040283529160200191620007da565b604154603d54604080516341976e0960e01b81526001600160a01b0392831660048201529051600093929092169182916341976e09916024808301926020929190829003018186803b15801562000f9957600080fd5b505afa15801562000fae573d6000803e3d6000fd5b505050506040513d602081101562000fc557600080fd5b505191505090565b6002600054141562001015576040805162461bcd60e51b815260206004820152601f602482015260008051602062003b49833981519152604482015290519081900360640190fd5b600260005562001026338262001f17565b506001600055565b6046602052600090815260409020805460019091015482565b603d546001600160a01b031681565b600154610100900460ff1680620010725750620010726200224e565b8062001081575060015460ff16155b620010be5760405162461bcd60e51b815260040180806020018281038252602e81526020018062003b8a602e913960400191505060405180910390fd5b600154610100900460ff16158015620010e9576001805460ff1961ff00199091166101001716811790555b8842106200113e576040805162461bcd60e51b815260206004820152601960248201527f4578706972792068617320616c72656164792070617373656400000000000000604482015290519081900360640190fd5b604580546001600160a01b0319166001600160a01b038f161790558a516200116e9060389060208e019062002684565b508951620011849060399060208d019062002684565b5088603a8190555086603c8190555085603d60006101000a8154816001600160a01b0302191690836001600160a01b0316021790555084603e60006101000a8154816001600160a01b0302191690836001600160a01b031602179055508b604160006101000a8154816001600160a01b0302191690836001600160a01b0316021790555082604360006101000a8154816001600160a01b0302191690836001600160a01b0316021790555087603b8190555083603f60006101000a8154816001600160a01b0302191690836001600160a01b0316021790555081604460006101000a8154816001600160a01b0302191690836001600160a01b031602179055506000604160146101000a81548160ff02191690831515021790555060008b8b604051620012b19062002709565b604080825283519082015282518190602080830191606084019187019080838360005b83811015620012ee578181015183820152602001620012d4565b50505050905090810190601f1680156200131c5780820380516001836020036101000a031916815260200191505b50838103825284518152845160209182019186019080838360005b838110156200135157818101518382015260200162001337565b50505050905090810190601f1680156200137f5780820380516001836020036101000a031916815260200191505b50945050505050604051809103906000f080158015620013a3573d6000803e3d6000fd5b50604080546001600160a01b0319166001600160a01b038316179055905080620013d08f85838962001864565b50508015620013e5576001805461ff00191690555b50505050505050505050505050565b6041546001600160a01b031681565b600260005414156200144b576040805162461bcd60e51b815260206004820152601f602482015260008051602062003b49833981519152604482015290519081900360640190fd5b6002600055620010268162001e31565b604154603e54604080516341976e0960e01b81526001600160a01b0392831660048201529051600093929092169182916341976e09916024808301926020929190829003018186803b15801562000f9957600080fd5b60026000541415620014f9576040805162461bcd60e51b815260206004820152601f602482015260008051602062003b49833981519152604482015290519081900360640190fd5b6002600055604154600160a01b900460ff166200155d576040805162461bcd60e51b815260206004820152601a60248201527f496e737472756d656e74206d7573742062652065787069726564000000000000604482015290519081900360640190fd5b3360009081526046602052604090208054620015c0576040805162461bcd60e51b815260206004820152601a60248201527f5661756c74206d757374206861766520636f6c6c61746572616c000000000000604482015290519081900360640190fd5b6000603b546042541015620015d85750600062001615565b6000620015ea603b5460425462001da7565b90506000620015fe84600101548362001d69565b90506200161084600001548262002254565b925050505b60008083556001830155603d546001600160a01b03166200163e81338463ffffffff620022a516565b60408051838152905133917f2e0433b43eb7ab92dd1c3efb4537bdcd1fb8b5553132034208aeb7ef9b1b6cb7919081900360200190a25050600160005550565b603b5481565b6040546001600160a01b031690565b60026000541415620016db576040805162461bcd60e51b815260206004820152601f602482015260008051602062003b49833981519152604482015290519081900360640190fd5b6002600055604154600160a01b900460ff166200173f576040805162461bcd60e51b815260206004820152601a60248201527f496e737472756d656e74206d7573742062652065787069726564000000000000604482015290519081900360640190fd5b6000603b546042541015620017565750806200177a565b600062001768603b5460425462001da7565b905062001776838262001d69565b9150505b60006200178662001684565b60408051632770a7eb60e21b81523360048201526024810186905290519192506001600160a01b03831691639dc29fac9160448082019260009290919082900301818387803b158015620017d957600080fd5b505af1158015620017ee573d6000803e3d6000fd5b5050603d546001600160a01b0316915062001813905081338563ffffffff620022a516565b6040805185815260208101859052815133927ff3a670cd3af7d64b488926880889d08a8585a138ff455227af6737339a1ec262928290030190a2505060016000555050565b603c5481565b603a5481565b600154610100900460ff1680620018805750620018806200224e565b806200188f575060015460ff16155b620018cc5760405162461bcd60e51b815260040180806020018281038252602e81526020018062003b8a602e913960400191505060405180910390fd5b600154610100900460ff16158015620018f7576001805460ff1961ff00199091166101001716811790555b603480546001600160a01b038086166001600160a01b031992831617909255603580549285169290911691909117905562001934848484620022fe565b603680546001600160a01b03199081166001600160a01b039384161790915560378054909116918716919091179055801562001976576001805461ff00191690555b5050505050565b603660009054906101000a90046001600160a01b03166001600160a01b031663cd2ed8fb6040518163ffffffff1660e01b8152600401602060405180830381600087803b158015620019ce57600080fd5b505af1158015620019e3573d6000803e3d6000fd5b505050506040513d6020811015620019fa57600080fd5b50511562001a47576040805162461bcd60e51b81526020600482015260156024820152741d1bdad95b9cc8185b1c9958591e48189a5b991959605a1b604482015290519081900360640190fd5b6037546001600160a01b0316331462001a94576040805162461bcd60e51b815260206004820152600a60248201526937b7363c9037bbb732b960b11b604482015290519081900360640190fd5b6036546034546040805163095ea7b360e01b81526001600160a01b039384166004820181905260248201879052915191939092169163095ea7b39160448083019260209291908290030181600087803b15801562001af157600080fd5b505af115801562001b06573d6000803e3d6000fd5b505050506040513d602081101562001b1d57600080fd5b50506035546040805163095ea7b360e01b81526001600160a01b038481166004830152602482018690529151919092169163095ea7b39160448083019260209291908290030181600087803b15801562001b7657600080fd5b505af115801562001b8b573d6000803e3d6000fd5b505050506040513d602081101562001ba257600080fd5b505060365460345460408051631c9c3ca760e31b81526001600160a01b03928316600482015260248101879052670de0b6b3a764000060448201529051919092169163e4e1e53891606480830192600092919082900301818387803b15801562001c0b57600080fd5b505af115801562001c20573d6000803e3d6000fd5b505060365460355460408051631c9c3ca760e31b81526001600160a01b03928316600482015260248101889052670de0b6b3a76400006044820152905191909216935063e4e1e5389250606480830192600092919082900301818387803b15801562001c8b57600080fd5b505af115801562001ca0573d6000803e3d6000fd5b50505050603660009054906101000a90046001600160a01b03166001600160a01b0316634bb278f36040518163ffffffff1660e01b8152600401600060405180830381600087803b15801562001cf557600080fd5b505af115801562001d0a573d6000803e3d6000fd5b50505050505050565b8082018281101562001d63576040805162461bcd60e51b815260206004820152601460248201527364732d6d6174682d6164642d6f766572666c6f7760601b604482015290519081900360640190fd5b92915050565b6000670de0b6b3a764000062001d9762001d84858562001dcb565b6002670de0b6b3a76400005b0462001d13565b8162001d9f57fe5b049392505050565b60008162001d9762001dc285670de0b6b3a764000062001dcb565b60028562001d90565b600081158062001de85750508082028282828162001de557fe5b04145b62001d63576040805162461bcd60e51b815260206004820152601460248201527364732d6d6174682d6d756c2d6f766572666c6f7760601b604482015290519081900360640190fd5b604154600160a01b900460ff161562001e91576040805162461bcd60e51b815260206004820152601e60248201527f496e737472756d656e74206d757374206e6f7420626520657870697265640000604482015290519081900360640190fd5b603d5433600090815260466020526040902080546001600160a01b039092169162001ebd908462001d13565b815562001edc6001600160a01b03831633308663ffffffff6200237a16565b60408051848152905133917f2da466a7b24304f47e87fa2e1e5a81b9831ce54fec19055ce277ca2f39ba42c4919081900360200190a2505050565b604154600160a01b900460ff161562001f77576040805162461bcd60e51b815260206004820152601e60248201527f496e737472756d656e74206d757374206e6f7420626520657870697265640000604482015290519081900360640190fd5b336000908152604660205260408120600181015490919062001f9a908462001d13565b9050808260000154101562001fe15760405162461bcd60e51b815260040180806020018281038252602181526020018062003b696021913960400191505060405180910390fd5b60018201819055600062001ff462001684565b9050806001600160a01b03166340c10f1986866040518363ffffffff1660e01b815260040180836001600160a01b03166001600160a01b0316815260200182815260200192505050600060405180830381600087803b1580156200205757600080fd5b505af11580156200206c573d6000803e3d6000fd5b50506040805187815290513393507f30385c845b448a36257a6a1716e6ad2e1bc2cbe333cde1e69fe849ad6511adfe92509081900360200190a25050505050565b336001600160a01b038316146200210b576040805162461bcd60e51b815260206004820152601f60248201527f4f6e6c79207661756c74206f776e65722063616e207265706179206465627400604482015290519081900360640190fd5b6001600160a01b03821660009081526046602052604090206001810154821115620021685760405162461bcd60e51b815260040180806020018281038252602281526020018062003be26022913960400191505060405180910390fd5b6200217881600101548362002254565b600182015560006200218962001684565b9050806001600160a01b0316639dc29fac86856040518363ffffffff1660e01b815260040180836001600160a01b03166001600160a01b0316815260200182815260200192505050600060405180830381600087803b158015620021ec57600080fd5b505af115801562002201573d6000803e3d6000fd5b50506040805186815290516001600160a01b038089169450891692507f0a3fbbea70e93f2daafa3102f5c9a1b8315e6d7a1e43e4bc020bc1162327470a9181900360200190a35050505050565b303b1590565b8082038281111562001d63576040805162461bcd60e51b815260206004820152601560248201527464732d6d6174682d7375622d756e646572666c6f7760581b604482015290519081900360640190fd5b604080516001600160a01b038416602482015260448082018490528251808303909101815260649091019091526020810180516001600160e01b031663a9059cbb60e01b179052620022f9908490620023dc565b505050565b6000808490506000816001600160a01b031663d556c5dc6040518163ffffffff1660e01b8152600401602060405180830381600087803b1580156200234257600080fd5b505af115801562002357573d6000803e3d6000fd5b505050506040513d60208110156200236e57600080fd5b50519695505050505050565b604080516001600160a01b0380861660248301528416604482015260648082018490528251808303909101815260849091019091526020810180516001600160e01b03166323b872dd60e01b179052620023d6908590620023dc565b50505050565b606062002433826040518060400160405280602081526020017f5361666545524332303a206c6f772d6c6576656c2063616c6c206661696c6564815250856001600160a01b0316620024939092919063ffffffff16565b805190915015620022f9578080602001905160208110156200245457600080fd5b5051620022f95760405162461bcd60e51b815260040180806020018281038252602a81526020018062003bb8602a913960400191505060405180910390fd5b6060620024a48484600085620024ac565b949350505050565b6060620024b98562002664565b6200250b576040805162461bcd60e51b815260206004820152601d60248201527f416464726573733a2063616c6c20746f206e6f6e2d636f6e7472616374000000604482015290519081900360640190fd5b60006060866001600160a01b031685876040518082805190602001908083835b602083106200254c5780518252601f1990920191602091820191016200252b565b6001836020036101000a03801982511681845116808217855250505050505090500191505060006040518083038185875af1925050503d8060008114620025b0576040519150601f19603f3d011682016040523d82523d6000602084013e620025b5565b606091505b50915091508115620025cb579150620024a49050565b805115620025dc5780518082602001fd5b8360405162461bcd60e51b81526004018080602001828103825283818151815260200191508051906020019080838360005b83811015620026285781810151838201526020016200260e565b50505050905090810190601f168015620026565780820380516001836020036101000a031916815260200191505b509250505060405180910390fd5b3b151590565b604051806040016040528060008152602001600081525090565b828054600181600116156101000203166002900490600052602060002090601f016020900481019282601f10620026c757805160ff1916838001178555620026f7565b82800160010185558215620026f7579182015b82811115620026f7578251825591602001919060010190620026da565b506200270592915062002717565b5090565b611414806200273583390190565b6200074791905b808211156200270557600081556001016200271e56fe60806040523480156200001157600080fd5b506040516200141438038062001414833981810160405260408110156200003757600080fd5b81019080805160405193929190846401000000008211156200005857600080fd5b9083019060208201858111156200006e57600080fd5b82516401000000008111828201881017156200008957600080fd5b82525081516020918201929091019080838360005b83811015620000b85781810151838201526020016200009e565b50505050905090810190601f168015620000e65780820380516001836020036101000a031916815260200191505b50604052602001805160405193929190846401000000008211156200010a57600080fd5b9083019060208201858111156200012057600080fd5b82516401000000008111828201881017156200013b57600080fd5b82525081516020918201929091019080838360005b838110156200016a57818101518382015260200162000150565b50505050905090810190601f168015620001985780820380516001836020036101000a031916815260200191505b50604052505082518391508290620001b890600390602085019062000256565b508051620001ce90600490602084019062000256565b50506005805460ff19166012179055506000620001f36001600160e01b036200025116565b60058054610100600160a81b0319166101006001600160a01b03841690810291909117909155604051919250906000907f8be0079c531659141344cd1fd0a4f28419497f9722a3daafe3b4186f6b6457e0908290a3505050620002f8565b335b90565b828054600181600116156101000203166002900490600052602060002090601f016020900481019282601f106200029957805160ff1916838001178555620002c9565b82800160010185558215620002c9579182015b82811115620002c9578251825591602001919060010190620002ac565b50620002d7929150620002db565b5090565b6200025391905b80821115620002d75760008155600101620002e2565b61110c80620003086000396000f3fe608060405234801561001057600080fd5b506004361061010b5760003560e01c8063715018a6116100a2578063a457c2d711610071578063a457c2d71461031b578063a9059cbb14610347578063dd62ed3e14610373578063eecd8496146103a1578063f2fde38b146103a95761010b565b8063715018a6146102bb5780638da5cb5b146102c357806395d89b41146102e75780639dc29fac146102ef5761010b565b8063313ce567116100de578063313ce5671461021d578063395093511461023b57806340c10f191461026757806370a08231146102955761010b565b806306fdde0314610110578063095ea7b31461018d57806318160ddd146101cd57806323b872dd146101e7575b600080fd5b6101186103cf565b6040805160208082528351818301528351919283929083019185019080838360005b8381101561015257818101518382015260200161013a565b50505050905090810190601f16801561017f5780820380516001836020036101000a031916815260200191505b509250505060405180910390f35b6101b9600480360360408110156101a357600080fd5b506001600160a01b038135169060200135610465565b604080519115158252519081900360200190f35b6101d5610482565b60408051918252519081900360200190f35b6101b9600480360360608110156101fd57600080fd5b506001600160a01b03813581169160208101359091169060400135610488565b610225610515565b6040805160ff9092168252519081900360200190f35b6101b96004803603604081101561025157600080fd5b506001600160a01b03813516906020013561051e565b6102936004803603604081101561027d57600080fd5b506001600160a01b038135169060200135610572565b005b6101d5600480360360208110156102ab57600080fd5b50356001600160a01b03166105dd565b6102936105f8565b6102cb6106a5565b604080516001600160a01b039092168252519081900360200190f35b6101186106b9565b6102936004803603604081101561030557600080fd5b506001600160a01b03813516906020013561071a565b6101b96004803603604081101561033157600080fd5b506001600160a01b0381351690602001356107c8565b6101b96004803603604081101561035d57600080fd5b506001600160a01b038135169060200135610836565b6101d56004803603604081101561038957600080fd5b506001600160a01b038135811691602001351661084a565b6102cb610875565b610293600480360360208110156103bf57600080fd5b50356001600160a01b0316610884565b60038054604080516020601f600260001961010060018816150201909516949094049384018190048102820181019092528281526060939092909183018282801561045b5780601f106104305761010080835404028352916020019161045b565b820191906000526020600020905b81548152906001019060200180831161043e57829003601f168201915b5050505050905090565b600061047961047261098d565b8484610991565b50600192915050565b60025490565b6000610495848484610a7d565b61050b846104a161098d565b61050685604051806060016040528060288152602001611000602891396001600160a01b038a166000908152600160205260408120906104df61098d565b6001600160a01b03168152602081019190915260400160002054919063ffffffff610be416565b610991565b5060019392505050565b60055460ff1690565b600061047961052b61098d565b84610506856001600061053c61098d565b6001600160a01b03908116825260208083019390935260409182016000908120918c16815292529020549063ffffffff610c7b16565b61057a61098d565b60055461010090046001600160a01b039081169116146105cf576040805162461bcd60e51b81526020600482018190526024820152600080516020611028833981519152604482015290519081900360640190fd5b6105d98282610cdc565b5050565b6001600160a01b031660009081526020819052604090205490565b61060061098d565b60055461010090046001600160a01b03908116911614610655576040805162461bcd60e51b81526020600482018190526024820152600080516020611028833981519152604482015290519081900360640190fd5b60055460405160009161010090046001600160a01b0316907f8be0079c531659141344cd1fd0a4f28419497f9722a3daafe3b4186f6b6457e0908390a360058054610100600160a81b0319169055565b60055461010090046001600160a01b031690565b60048054604080516020601f600260001961010060018816150201909516949094049384018190048102820181019092528281526060939092909183018282801561045b5780601f106104305761010080835404028352916020019161045b565b61072261098d565b60055461010090046001600160a01b03908116911614610777576040805162461bcd60e51b81526020600482018190526024820152600080516020611028833981519152604482015290519081900360640190fd5b80610781836105dd565b10156107be5760405162461bcd60e51b8152600401808060200182810382526025815260200180610f6d6025913960400191505060405180910390fd5b6105d98282610dd8565b60006104796107d561098d565b84610506856040518060600160405280602581526020016110b260259139600160006107ff61098d565b6001600160a01b03908116825260208083019390935260409182016000908120918d1681529252902054919063ffffffff610be416565b600061047961084361098d565b8484610a7d565b6001600160a01b03918216600090815260016020908152604080832093909416825291909152205490565b600061087f6106a5565b905090565b61088c61098d565b60055461010090046001600160a01b039081169116146108e1576040805162461bcd60e51b81526020600482018190526024820152600080516020611028833981519152604482015290519081900360640190fd5b6001600160a01b0381166109265760405162461bcd60e51b8152600401808060200182810382526026815260200180610f926026913960400191505060405180910390fd5b6005546040516001600160a01b0380841692610100900416907f8be0079c531659141344cd1fd0a4f28419497f9722a3daafe3b4186f6b6457e090600090a3600580546001600160a01b0390921661010002610100600160a81b0319909216919091179055565b3390565b6001600160a01b0383166109d65760405162461bcd60e51b815260040180806020018281038252602481526020018061108e6024913960400191505060405180910390fd5b6001600160a01b038216610a1b5760405162461bcd60e51b8152600401808060200182810382526022815260200180610fb86022913960400191505060405180910390fd5b6001600160a01b03808416600081815260016020908152604080832094871680845294825291829020859055815185815291517f8c5be1e5ebec7d5bd14f71427d1e84f3dd0314c0f7b2291e5b200ac8c7c3b9259281900390910190a3505050565b6001600160a01b038316610ac25760405162461bcd60e51b81526004018080602001828103825260258152602001806110696025913960400191505060405180910390fd5b6001600160a01b038216610b075760405162461bcd60e51b8152600401808060200182810382526023815260200180610f286023913960400191505060405180910390fd5b610b12838383610ee0565b610b5581604051806060016040528060268152602001610fda602691396001600160a01b038616600090815260208190526040902054919063ffffffff610be416565b6001600160a01b038085166000908152602081905260408082209390935590841681522054610b8a908263ffffffff610c7b16565b6001600160a01b038084166000818152602081815260409182902094909455805185815290519193928716927fddf252ad1be2c89b69c2b068fc378daa952ba7f163c4a11628f55a4df523b3ef92918290030190a3505050565b60008184841115610c735760405162461bcd60e51b81526004018080602001828103825283818151815260200191508051906020019080838360005b83811015610c38578181015183820152602001610c20565b50505050905090810190601f168015610c655780820380516001836020036101000a031916815260200191505b509250505060405180910390fd5b505050900390565b600082820183811015610cd5576040805162461bcd60e51b815260206004820152601b60248201527f536166654d6174683a206164646974696f6e206f766572666c6f770000000000604482015290519081900360640190fd5b9392505050565b6001600160a01b038216610d37576040805162461bcd60e51b815260206004820152601f60248201527f45524332303a206d696e7420746f20746865207a65726f206164647265737300604482015290519081900360640190fd5b610d4360008383610ee0565b600254610d56908263ffffffff610c7b16565b6002556001600160a01b038216600090815260208190526040902054610d82908263ffffffff610c7b16565b6001600160a01b0383166000818152602081815260408083209490945583518581529351929391927fddf252ad1be2c89b69c2b068fc378daa952ba7f163c4a11628f55a4df523b3ef9281900390910190a35050565b6001600160a01b038216610e1d5760405162461bcd60e51b81526004018080602001828103825260218152602001806110486021913960400191505060405180910390fd5b610e2982600083610ee0565b610e6c81604051806060016040528060228152602001610f4b602291396001600160a01b038516600090815260208190526040902054919063ffffffff610be416565b6001600160a01b038316600090815260208190526040902055600254610e98908263ffffffff610ee516565b6002556040805182815290516000916001600160a01b038516917fddf252ad1be2c89b69c2b068fc378daa952ba7f163c4a11628f55a4df523b3ef9181900360200190a35050565b505050565b6000610cd583836040518060400160405280601e81526020017f536166654d6174683a207375627472616374696f6e206f766572666c6f770000815250610be456fe45524332303a207472616e7366657220746f20746865207a65726f206164647265737345524332303a206275726e20616d6f756e7420657863656564732062616c616e636543616e6e6f74206275726e206d6f7265207468616e206163636f756e742062616c616e63654f776e61626c653a206e6577206f776e657220697320746865207a65726f206164647265737345524332303a20617070726f766520746f20746865207a65726f206164647265737345524332303a207472616e7366657220616d6f756e7420657863656564732062616c616e636545524332303a207472616e7366657220616d6f756e74206578636565647320616c6c6f77616e63654f776e61626c653a2063616c6c6572206973206e6f7420746865206f776e657245524332303a206275726e2066726f6d20746865207a65726f206164647265737345524332303a207472616e736665722066726f6d20746865207a65726f206164647265737345524332303a20617070726f76652066726f6d20746865207a65726f206164647265737345524332303a2064656372656173656420616c6c6f77616e63652062656c6f77207a65726fa2646970667358221220117b2b9bc377ff4fd18383a22e59f9a7c2e6114badbc9a6ee2fc8e85d4d6a31464736f6c634300060800335265656e7472616e637947756172643a207265656e7472616e742063616c6c0043616e6e6f74206d696e74206d6f7265207468616e20636f6c2062616c616e6365436f6e747261637420696e7374616e63652068617320616c7265616479206265656e20696e697469616c697a65645361666545524332303a204552433230206f7065726174696f6e20646964206e6f74207375636365656443616e6e6f74207265706179206d6f72652064656274207468616e20657869737473a2646970667358221220f1e134adbe185f06aa00f1ed444840b49c914cf534038c0ca294399806e647b064736f6c63430006080033",
  "immutableReferences": {},
  "source": "// SPDX-License-Identifier: MIT\npragma solidity >=0.6.0;\n\nimport \"../lib/upgrades/Initializable.sol\";\nimport \"../interfaces/InstrumentInterface.sol\";\n\nimport \"./BaseInstrument.sol\";\nimport \"../Balancer.sol\";\n\ncontract TwinYield is\n    Initializable,\n    Balancer,\n    InstrumentInterface,\n    BaseInstrument\n{\n    using SafeERC20 for IERC20;\n\n    function initialize(\n        address _owner,\n        address _dataProvider,\n        string memory name,\n        string memory symbol,\n        uint256 _expiry,\n        uint256 _strikePrice,\n        uint256 _collateralizationRatio,\n        address _collateralAsset,\n        address _targetAsset,\n        address _paymentToken,\n        address _liquidatorProxy,\n        address _balancerFactory\n    ) public initializer {\n        require(block.timestamp < _expiry, \"Expiry has already passed\");\n\n        owner = _owner;\n        _name = name;\n        _symbol = symbol;\n        expiry = _expiry;\n        collateralizationRatio = _collateralizationRatio;\n        collateralAsset = _collateralAsset;\n        targetAsset = _targetAsset;\n        dataProvider = _dataProvider;\n        liquidatorProxy = _liquidatorProxy;\n        strikePrice = _strikePrice;\n        paymentToken = _paymentToken;\n        balancerFactory = _balancerFactory;\n        expired = false;\n\n        // Init new DToken\n        DToken newDToken = new DToken(name, symbol);\n        address dToken = address(newDToken);\n        _dToken = dToken;\n\n        Balancer.initialize(_owner, _balancerFactory, dToken, _paymentToken);\n    }\n\n    /**\n     * @notice Deposits collateral into the system. Calls the `depositInteral` function\n     * @param _amount is amount of collateral to deposit\n     */\n    function deposit(uint256 _amount) public override nonReentrant {\n        depositInternal(_amount);\n    }\n\n    /**\n     * @notice Deposits collateral into the Instrument contract and credits the caller's vault\n     * @param _amount is amount of collateral to deposit\n     */\n    function depositInternal(uint256 _amount) internal {\n        require(!expired, \"Instrument must not be expired\");\n\n        IERC20 colToken = IERC20(collateralAsset);\n\n        Vault storage vault = vaults[msg.sender];\n        vault.collateral = add(vault.collateral, _amount);\n\n        colToken.safeTransferFrom(msg.sender, address(this), _amount);\n        emit Deposited(msg.sender, _amount);\n    }\n\n    /**\n     * @notice Mints dTokens. Calls the `mintInternal` function\n     * @param _amount is amount of dToken to mint\n     */\n    function mint(uint256 _amount) public override nonReentrant {\n        mintInternal(msg.sender, _amount);\n    }\n\n    /**\n     * @notice Mints dTokens and debits the debt in the caller's vault\n     * @param _amount is amount of dToken to mint\n     */\n    function mintInternal(address _recipient, uint256 _amount) internal {\n        require(!expired, \"Instrument must not be expired\");\n        Vault storage vault = vaults[msg.sender];\n\n        uint256 newDebt = add(vault.dTokenDebt, _amount);\n\n        require(\n            vault.collateral >= newDebt,\n            \"Cannot mint more than col balance\"\n        );\n        vault.dTokenDebt = newDebt;\n\n        DToken dTokenContract = DToken(dToken());\n        dTokenContract.mint(_recipient, _amount);\n        emit Minted(msg.sender, _amount);\n    }\n\n    /**\n     * @notice Deposits collateral and mints dToken atomically\n     * @param _collateral is amount of collateral to deposit\n     * @param _dToken is amount of dTokens to mint\n     */\n    function depositAndMint(uint256 _collateral, uint256 _dToken)\n        external\n        override\n        nonReentrant\n    {\n        depositInternal(_collateral);\n        mintInternal(msg.sender, _dToken);\n    }\n\n    /**\n     * @notice Deposits collateral, mints dToken, sells dToken atomically\n     * @param _collateral is amount of collateral to deposit\n     * @param _dToken is amount of dTokens to mint\n     * @param _maxSlippage is max % amount of slippage in WAD\n     */\n    function depositMintAndSell(\n        uint256 _collateral,\n        uint256 _dToken,\n        uint256 _maxSlippage\n    ) external override nonReentrant {\n        depositInternal(_collateral);\n\n        // mint the tokens and set the instrument as the recipient of the newly minted tokens\n        // this avoids an extra approval to the Balancer pool for the seller\n        mintInternal(address(this), _dToken);\n\n        Balancer.sellToPool(_dToken, _maxSlippage);\n    }\n\n    /**\n     * @notice Repays dToken debt in a vault\n     * @param _account is the address which debt is being repaid\n     * @param _amount is amount of dToken to repay\n     */\n    function repayDebt(address _account, uint256 _amount)\n        public\n        override\n        nonReentrant\n    {\n        repayDebtInternal(msg.sender, _account, _amount);\n    }\n\n    /**\n     * @notice Repays dToken debt in a vault\n     * @param _repayer is the address who is paying down the debt with dTokens\n     * @param _account is the address which debt is being repaid\n     * @param _amount is amount of dToken to repay\n     */\n    function repayDebtInternal(\n        address _repayer,\n        address _account,\n        uint256 _amount\n    ) internal {\n        // Only vault owner can repay debt\n        require(msg.sender == _account, \"Only vault owner can repay debt\");\n\n        Vault storage vault = vaults[_account];\n        require(\n            vault.dTokenDebt >= _amount,\n            \"Cannot repay more debt than exists\"\n        );\n\n        vault.dTokenDebt = sub(vault.dTokenDebt, _amount);\n\n        DToken dTokenContract = DToken(dToken());\n        dTokenContract.burn(_repayer, _amount);\n        emit Repaid(_repayer, _account, _amount);\n    }\n\n    /**\n     * @notice Changes `expired` to True if timestamp is greater than expiry\n     * It calculates the `settlePrice` with the current prices of target and\n     * collateral assets, then sets them in stone.\n     */\n    function settle() public override {\n        require(block.timestamp > expiry, \"Instrument has not expired\");\n        expired = true;\n\n        // Set settlePrice to the current price of target and collat assets\n        DataProviderInterface data = DataProviderInterface(dataProvider);\n\n        // Padding to convert prices (10^8) to 10^18\n        settlePrice = mul(data.getPrice(collateralAsset), 10**10);\n\n        emit Settled(block.timestamp, settlePrice);\n    }\n\n    /**\n     * @notice Redeems dToken for collateral after expiry\n     * @param _dTokenAmount is amount of dTokens to redeem\n     */\n    function redeem(uint256 _dTokenAmount) external override nonReentrant {\n        require(expired, \"Instrument must be expired\");\n\n        uint256 withdrawAmount;\n        if (settlePrice < strikePrice) {\n            withdrawAmount = _dTokenAmount;\n        } else {\n            uint256 price = wdiv(strikePrice, settlePrice);\n            withdrawAmount = wmul(_dTokenAmount, price);\n        }\n\n        DToken dTokenContract = DToken(dToken());\n        dTokenContract.burn(msg.sender, _dTokenAmount);\n\n        IERC20 colTokenContract = IERC20(collateralAsset);\n        colTokenContract.safeTransfer(msg.sender, withdrawAmount);\n\n        emit Redeemed(msg.sender, _dTokenAmount, withdrawAmount);\n    }\n\n    /**\n     * @notice Withdraws collateral after instrument is expired\n     */\n    function withdrawAfterExpiry() external override nonReentrant {\n        require(expired, \"Instrument must be expired\");\n        Vault storage vault = vaults[msg.sender];\n\n        require(vault.collateral > 0, \"Vault must have collateral\");\n\n        uint256 withdrawAmount;\n        if (settlePrice < strikePrice) {\n            // Vault owner cannot withdraw excess collateral if settle < strike\n            withdrawAmount = 0;\n        } else {\n            uint256 price = wdiv(strikePrice, settlePrice);\n            // Max amount that can be redeemed against this vault\n            uint256 maxRedeem = wmul(vault.dTokenDebt, price);\n            // WithdrawAmount is col - maxRedeem\n            withdrawAmount = sub(vault.collateral, maxRedeem);\n        }\n\n        // Reset vaults to 0 so subsequent withdraws will fail\n        vault.collateral = 0;\n        vault.dTokenDebt = 0;\n\n        IERC20 colToken = IERC20(collateralAsset);\n        colToken.safeTransfer(msg.sender, withdrawAmount);\n        emit WithdrewExpired(msg.sender, withdrawAmount);\n    }\n}\n",
  "sourcePath": "/Users/hao/Desktop/protocol/contracts/instruments/TwinYield.sol",
  "compiler": {
    "name": "solc",
    "version": "0.6.8+commit.0bbfe453.Emscripten.clang"
  },
  "schemaVersion": "3.2.5",
  "updatedAt": "2020-11-10T18:47:58.960Z",
  "networkType": "ethereum",
  "devdoc": {
    "methods": {
      "deposit(uint256)": {
        "params": {
          "_amount": "is amount of collateral to deposit"
        }
      },
      "depositAndMint(uint256,uint256)": {
        "params": {
          "_collateral": "is amount of collateral to deposit",
          "_dToken": "is amount of dTokens to mint"
        }
      },
      "depositMintAndSell(uint256,uint256,uint256)": {
        "params": {
          "_collateral": "is amount of collateral to deposit",
          "_dToken": "is amount of dTokens to mint",
          "_maxSlippage": "is max % amount of slippage in WAD"
        }
      },
      "getVault(address)": {
        "params": {
          "_user": "user's address"
        }
      },
      "initialize(address,address,address,address)": {
        "params": {
          "bFactory": "is the address of the Balancer Core Factory",
          "dToken": "is the address of the instrument dToken",
          "paymentToken": "is the address of the paymentToken (the token sellers get when selling dToken)"
        }
      },
      "mint(uint256)": {
        "params": {
          "_amount": "is amount of dToken to mint"
        }
      },
      "redeem(uint256)": {
        "params": {
          "_dTokenAmount": "is amount of dTokens to redeem"
        }
      },
      "repayDebt(address,uint256)": {
        "params": {
          "_account": "is the address which debt is being repaid",
          "_amount": "is amount of dToken to repay"
        }
      },
      "sellToPool(uint256,uint256)": {
        "params": {
          "_sellAmount": "is the amount of dTokens to sell. All of the tokens will be sold."
        }
      }
    }
  },
  "userdoc": {
    "methods": {
      "balancerDToken()": {
        "notice": "Returns the stored dToken"
      },
      "balancerPaymentToken()": {
        "notice": "Returns the payment token"
      },
      "balancerPool()": {
        "notice": "Returns the created balancer pool"
      },
      "dToken()": {
        "notice": "Returns the dToken of the instrument"
      },
      "deposit(uint256)": {
        "notice": "Deposits collateral into the system. Calls the `depositInteral` function"
      },
      "depositAndMint(uint256,uint256)": {
        "notice": "Deposits collateral and mints dToken atomically"
      },
      "depositMintAndSell(uint256,uint256,uint256)": {
        "notice": "Deposits collateral, mints dToken, sells dToken atomically"
      },
      "getColPrice()": {
        "notice": "Gets the price of collateral asset"
      },
      "getTargetPrice()": {
        "notice": "Gets the price of target asset"
      },
      "getVault(address)": {
        "notice": "Gets the collateral and debt of a vault"
      },
      "initialize(address,address,address,address)": {
        "notice": "Initializes the contract with params and creates a new pool, with address(this) as the pool's controller."
      },
      "mint(uint256)": {
        "notice": "Mints dTokens. Calls the `mintInternal` function"
      },
      "name()": {
        "notice": "Returns the name of the contract"
      },
      "redeem(uint256)": {
        "notice": "Redeems dToken for collateral after expiry"
      },
      "repayDebt(address,uint256)": {
        "notice": "Repays dToken debt in a vault"
      },
      "sellToPool(uint256,uint256)": {
        "notice": "Sell _sellAmount worth of dTokens to the Balancer pool and get tokenAmountOut worth of paymentTokens in return"
      },
      "settle()": {
        "notice": "Changes `expired` to True if timestamp is greater than expiry It calculates the `settlePrice` with the current prices of target and collateral assets, then sets them in stone."
      },
      "symbol()": {
        "notice": "Returns the symbol of the instrument"
      },
      "withdrawAfterExpiry()": {
        "notice": "Withdraws collateral after instrument is expired"
      }
    }
  }
}